:020000040000FA
:1000000068020020A1020000A9020000AB0200006B
:10001000AD020000AF020000B102000000000000CD
:10002000000000000000000000000000B30200001B
:10003000B502000000000000B7020000B902000095
:10004000BB020000BD020000BF020000C1020000B0
:10005000C3020000C5020000C7020000C902000080
:10006000CB020000CD020000CF020000D102000050
:10007000D3020000D5020000D7020000D902000020
:10008000DB020000DD020000DF020000E1020000F0
:10009000E3020000E5020000E7020000E9020000C0
:1000A000EB020000ED020000EF020000F102000090
:1000B000F3020000F5020000F7020000F902000060
:1000C000FB020000FD020000FF020000010300002F
:1000D00003030000050300000703000009030000FC
:1000E0000B0300000D0300000F03000011030000CC
:1000F000130300001503000017030000190300009C
:100100001B0300001D0300001F030000210300006B
:10011000230300002503000027030000290300003B
:100120002B0300002D0300002F030000310300000B
:1001300033030000350300003703000039030000DB
:100140003B0300003D0300003F0300005903000093
:1001500000000000000000005B0300005D030000E1
:100160005F03000061030000000000006303000063
:100170006503000067030000690300006B030000D3
:100180006D0300006F0300007103000073030000A3
:100190007503000077030000790300007B03000073
:1001A0007D0300007F030000810300008303000043
:1001B0008503000087030000890300008B03000013
:1001C0008D0300008F0300009103000093030000E3
:1001D0009503000097030000990300009B030000B3
:1001E0009D0300009F030000A1030000A303000083
:1001F000A5030000A7030000A9030000AB03000053
:1002000000F002F800F03CF80AA090E8000C8244EC
:100210008344AAF10107DA4501D100F031F8AFF2C9
:10022000090EBAE80F0013F0010F18BFFB1A43F0D4
:100230000103184784040000A4040000103A24BFFE
:1002400078C878C1FAD8520724BF30C830C144BF3B
:1002500004680C607047000000230024002500267D
:10026000103A28BF78C1FBD8520728BF30C148BF19
:100270000B6070471FB500F01AFA1FBD10B510BD16
:1002800000F0A7F81146FFF7F5FF00F07DF900F048
:10029000C5F803B4FFF7F2FF03BC00F0CDF800008F
:1002A0004548804745480047FEE7FEE7FEE7FEE792
:1002B000FEE7FEE7FEE7FEE7FEE7FEE7FEE7FEE716
:1002C000FEE7FEE7FEE7FEE7FEE7FEE7FEE7FEE706
:1002D000FEE7FEE7FEE7FEE7FEE7FEE7FEE7FEE7F6
:1002E000FEE7FEE7FEE7FEE7FEE7FEE7FEE7FEE7E6
:1002F000FEE7FEE7FEE7FEE7FEE7FEE7FEE7FEE7D6
:10030000FEE7FEE7FEE7FEE7FEE7FEE7FEE7FEE7C5
:10031000FEE7FEE7FEE7FEE7FEE7FEE7FEE7FEE7B5
:10032000FEE7FEE7FEE7FEE7FEE7FEE7FEE7FEE7A5
:10033000FEE7FEE7FEE7FEE7FEE7FEE7FEE7FEE795
:10034000FEE7FEE7FEE7FEE7FEE7FEE7FEE7FEE785
:10035000FEE7FEE7FEE7FEE7FEE7FEE7FEE7FEE775
:10036000FEE7FEE7FEE7FEE7FEE7FEE7FEE7FEE765
:10037000FEE7FEE7FEE7FEE7FEE7FEE7FEE7FEE755
:10038000FEE7FEE7FEE7FEE7FEE7FEE7FEE7FEE745
:10039000FEE7FEE7FEE7FEE7FEE7FEE7FEE7FEE735
:1003A000FEE7FEE7FEE7FEE7FEE7FEE70448054955
:1003B000034A054B704700004D0500000102000094
:1003C0006800002068020020680000207047704725
:1003D0007047754600F02CF8AE4605006946534656
:1003E00020F00700854618B020B5FFF7DFFFBDE815
:1003F00020404FF000064FF000074FF000084FF08C
:10040000000B21F00701AC46ACE8C009ACE8C0091C
:10041000ACE8C009ACE8C0098D46704710B5044689
:10042000AFF300802046BDE81040FFF732BF000068
:10043000004870470800002001491820ABBEFEE7C5
:1004400026000200704700002DE9F04106460F46E5
:100450009046700015490860084687600320486090
:10046000002500E06D1C12488542FBD300F060F8C7
:10047000C4B214B12046BDE8F081012000EB460073
:100480000A4908600720486000F052F8C4B20CB175
:100490002046F0E7002500E06D1C05488542FBD3AF
:1004A0000248806888F800000020E4E7001002405D
:1004B000C0C62D001A48006840F0020018490860C4
:1004C00017481838006840F040001549183908608E
:1004D0001448006840F003001249086012480068A0
:1004E00020F0FF00104908600846006840F0220034
:1004F00008600D481038006840F003000A491039C0
:10050000086009482038006840F002000649203998
:1005100008601020054908620720C8607047000085
:1005200020E60F4020E405402CE505400010024085
:1005300000BF0548406800F001000028F9D10248DA
:10054000406800F00E007047001002400448006848
:1005500040F470000249086002480349086070478F
:1005600088ED00E00024F400040000200178303120
:100570000170417830314170704700F00F020A700D
:1005800002094A70704700001CB5002001900090DD
:100590002E48006841F2010108432C4908600846D2
:1005A0000068019029481030006840F00100274998
:1005B000103108602648006840F0030024490860B4
:1005C000112024490860032022491039086022497B
:1005D0000860224908602248006B20F00100204991
:1005E0000863082048622C2088626020C8620020CE
:1005F0001C49086040F20130194908631AA000F054
:100600004BF8FFF757FF1C4AD0217620FFF71CFF5D
:100610001A490870694618480078FFF7AEFF684627
:10062000FFF7A4FF10A000F037F89DF8010000F0DC
:1006300027F89DF8000000F023F80A2000F020F8C9
:100640000D2000F01DF800201CBD000008E60F4042
:10065000208405402C850540004406401C4506408A
:1006600000C00040C8CF00400A0D436869702049AF
:10067000443A307800000000000000200100002013
:1006800000BF0449896901F020010029F9D101491D
:100690000860704700C0004000B5024603E012F851
:1006A000010BFFF7EDFF10780028F8D100BD4FF0E7
:1006B0004070E1EE100A7047D806000000000020EC
:1006C000080000003C020000E006000008000020D6
:1006D0006002000058020000000000000024F40046
:04000005000002A154
:00000001FF
